{
    "_format": "hh-sol-artifact-1",
    "contractName": "UniswapV3LPAddresses",
    "sourceName": "contracts/UniswapV3LPAddresses.sol",
    "abi": [
        {
            "inputs": [
                {
                    "internalType": "uint256",
                    "name": "_last_block",
                    "type": "uint256"
                }
            ],
            "stateMutability": "nonpayable",
            "type": "constructor"
        },
        {
            "inputs": [],
            "name": "AccessControlBadConfirmation",
            "type": "error"
        },
        {
            "inputs": [
                {
                    "internalType": "address",
                    "name": "account",
                    "type": "address"
                },
                {
                    "internalType": "bytes32",
                    "name": "neededRole",
                    "type": "bytes32"
                }
            ],
            "name": "AccessControlUnauthorizedAccount",
            "type": "error"
        },
        {
            "anonymous": false,
            "inputs": [
                {
                    "indexed": true,
                    "internalType": "address",
                    "name": "token_0",
                    "type": "address"
                },
                {
                    "indexed": true,
                    "internalType": "address",
                    "name": "token_1",
                    "type": "address"
                },
                {
                    "indexed": true,
                    "internalType": "uint24",
                    "name": "fee",
                    "type": "uint24"
                },
                {
                    "indexed": false,
                    "internalType": "address",
                    "name": "pool",
                    "type": "address"
                }
            ],
            "name": "PoolAdded",
            "type": "event"
        },
        {
            "anonymous": false,
            "inputs": [
                {
                    "indexed": true,
                    "internalType": "bytes32",
                    "name": "role",
                    "type": "bytes32"
                },
                {
                    "indexed": true,
                    "internalType": "bytes32",
                    "name": "previousAdminRole",
                    "type": "bytes32"
                },
                {
                    "indexed": true,
                    "internalType": "bytes32",
                    "name": "newAdminRole",
                    "type": "bytes32"
                }
            ],
            "name": "RoleAdminChanged",
            "type": "event"
        },
        {
            "anonymous": false,
            "inputs": [
                {
                    "indexed": true,
                    "internalType": "bytes32",
                    "name": "role",
                    "type": "bytes32"
                },
                {
                    "indexed": true,
                    "internalType": "address",
                    "name": "account",
                    "type": "address"
                },
                {
                    "indexed": true,
                    "internalType": "address",
                    "name": "sender",
                    "type": "address"
                }
            ],
            "name": "RoleGranted",
            "type": "event"
        },
        {
            "anonymous": false,
            "inputs": [
                {
                    "indexed": true,
                    "internalType": "bytes32",
                    "name": "role",
                    "type": "bytes32"
                },
                {
                    "indexed": true,
                    "internalType": "address",
                    "name": "account",
                    "type": "address"
                },
                {
                    "indexed": true,
                    "internalType": "address",
                    "name": "sender",
                    "type": "address"
                }
            ],
            "name": "RoleRevoked",
            "type": "event"
        },
        {
            "inputs": [],
            "name": "DEFAULT_ADMIN_ROLE",
            "outputs": [
                {
                    "internalType": "bytes32",
                    "name": "",
                    "type": "bytes32"
                }
            ],
            "stateMutability": "view",
            "type": "function"
        },
        {
            "inputs": [],
            "name": "LP_MANAGER_ROLE",
            "outputs": [
                {
                    "internalType": "bytes32",
                    "name": "",
                    "type": "bytes32"
                }
            ],
            "stateMutability": "view",
            "type": "function"
        },
        {
            "inputs": [
                {
                    "internalType": "address",
                    "name": "lp_address",
                    "type": "address"
                },
                {
                    "internalType": "address",
                    "name": "token_a",
                    "type": "address"
                },
                {
                    "internalType": "address",
                    "name": "token_b",
                    "type": "address"
                },
                {
                    "internalType": "uint24",
                    "name": "fee",
                    "type": "uint24"
                },
                {
                    "internalType": "uint256",
                    "name": "block_number",
                    "type": "uint256"
                }
            ],
            "name": "add_liquidity_pool",
            "outputs": [],
            "stateMutability": "nonpayable",
            "type": "function"
        },
        {
            "inputs": [
                {
                    "internalType": "address[]",
                    "name": "lp_address",
                    "type": "address[]"
                },
                {
                    "internalType": "address[]",
                    "name": "token_a",
                    "type": "address[]"
                },
                {
                    "internalType": "address[]",
                    "name": "token_b",
                    "type": "address[]"
                },
                {
                    "internalType": "uint24[]",
                    "name": "fee",
                    "type": "uint24[]"
                },
                {
                    "internalType": "uint256",
                    "name": "block_number",
                    "type": "uint256"
                }
            ],
            "name": "batch_add_liquidity_pool",
            "outputs": [],
            "stateMutability": "nonpayable",
            "type": "function"
        },
        {
            "inputs": [
                {
                    "internalType": "bytes32",
                    "name": "role",
                    "type": "bytes32"
                }
            ],
            "name": "getRoleAdmin",
            "outputs": [
                {
                    "internalType": "bytes32",
                    "name": "",
                    "type": "bytes32"
                }
            ],
            "stateMutability": "view",
            "type": "function"
        },
        {
            "inputs": [],
            "name": "get_last_block",
            "outputs": [
                {
                    "internalType": "uint256",
                    "name": "",
                    "type": "uint256"
                }
            ],
            "stateMutability": "view",
            "type": "function"
        },
        {
            "inputs": [
                {
                    "internalType": "address",
                    "name": "lp_address",
                    "type": "address"
                }
            ],
            "name": "get_liquidity_pool",
            "outputs": [
                {
                    "components": [
                        {
                            "internalType": "address",
                            "name": "token_0",
                            "type": "address"
                        },
                        {
                            "internalType": "address",
                            "name": "token_1",
                            "type": "address"
                        },
                        {
                            "internalType": "uint24",
                            "name": "fee",
                            "type": "uint24"
                        },
                        {
                            "internalType": "bool",
                            "name": "exist",
                            "type": "bool"
                        }
                    ],
                    "internalType": "struct UniswapV3LPAddresses.Liquidity_Pool",
                    "name": "",
                    "type": "tuple"
                }
            ],
            "stateMutability": "view",
            "type": "function"
        },
        {
            "inputs": [],
            "name": "get_liquidity_pool_addresses",
            "outputs": [
                {
                    "internalType": "address[]",
                    "name": "",
                    "type": "address[]"
                }
            ],
            "stateMutability": "view",
            "type": "function"
        },
        {
            "inputs": [
                {
                    "internalType": "bytes32",
                    "name": "role",
                    "type": "bytes32"
                },
                {
                    "internalType": "address",
                    "name": "account",
                    "type": "address"
                }
            ],
            "name": "grantRole",
            "outputs": [],
            "stateMutability": "nonpayable",
            "type": "function"
        },
        {
            "inputs": [
                {
                    "internalType": "bytes32",
                    "name": "role",
                    "type": "bytes32"
                },
                {
                    "internalType": "address",
                    "name": "account",
                    "type": "address"
                }
            ],
            "name": "hasRole",
            "outputs": [
                {
                    "internalType": "bool",
                    "name": "",
                    "type": "bool"
                }
            ],
            "stateMutability": "view",
            "type": "function"
        },
        {
            "inputs": [
                {
                    "internalType": "address",
                    "name": "",
                    "type": "address"
                }
            ],
            "name": "liquidity_pools",
            "outputs": [
                {
                    "internalType": "address",
                    "name": "token_0",
                    "type": "address"
                },
                {
                    "internalType": "address",
                    "name": "token_1",
                    "type": "address"
                },
                {
                    "internalType": "uint24",
                    "name": "fee",
                    "type": "uint24"
                },
                {
                    "internalType": "bool",
                    "name": "exist",
                    "type": "bool"
                }
            ],
            "stateMutability": "view",
            "type": "function"
        },
        {
            "inputs": [
                {
                    "internalType": "bytes32",
                    "name": "role",
                    "type": "bytes32"
                },
                {
                    "internalType": "address",
                    "name": "callerConfirmation",
                    "type": "address"
                }
            ],
            "name": "renounceRole",
            "outputs": [],
            "stateMutability": "nonpayable",
            "type": "function"
        },
        {
            "inputs": [
                {
                    "internalType": "bytes32",
                    "name": "role",
                    "type": "bytes32"
                },
                {
                    "internalType": "address",
                    "name": "account",
                    "type": "address"
                }
            ],
            "name": "revokeRole",
            "outputs": [],
            "stateMutability": "nonpayable",
            "type": "function"
        },
        {
            "inputs": [
                {
                    "internalType": "bytes4",
                    "name": "interfaceId",
                    "type": "bytes4"
                }
            ],
            "name": "supportsInterface",
            "outputs": [
                {
                    "internalType": "bool",
                    "name": "",
                    "type": "bool"
                }
            ],
            "stateMutability": "view",
            "type": "function"
        }
    ],
    "bytecode": "0x608060405234801561001057600080fd5b506040516114e53803806114e583398101604081905261002f91610111565b600381905561005e7f4c77aad017fee21f85779e09d66a6d10774ddd4461d36b082ec2a080fafd91d433610065565b505061012a565b6000828152602081815260408083206001600160a01b038516845290915281205460ff16610107576000838152602081815260408083206001600160a01b03861684529091529020805460ff191660011790556100bf3390565b6001600160a01b0316826001600160a01b0316847f2f8788117e7eff1d82e926ec794901d17c78024a50270940304540a733656f0d60405160405180910390a450600161010b565b5060005b92915050565b60006020828403121561012357600080fd5b5051919050565b6113ac806101396000396000f3fe608060405234801561001057600080fd5b50600436106100ea5760003560e01c80636954d9c71161008c578063a217fddf11610066578063a217fddf1461028d578063bba4507614610295578063d547741f1461029d578063e7bd7e9a146102b057600080fd5b80636954d9c71461022e57806391d14854146102435780639f6281ce1461027a57600080fd5b80632f2ff15d116100c85780632f2ff15d1461015d57806336568abe14610170578063425f284914610183578063496aa572146101aa57600080fd5b806301ffc9a7146100ef578063248a9ca3146101175780632e5edbb514610148575b600080fd5b6101026100fd366004610fef565b61030f565b60405190151581526020015b60405180910390f35b61013a610125366004611038565b60009081526020819052604090206001015490565b60405190815260200161010e565b61015b610156366004611161565b6103a8565b005b61015b61016b366004611270565b610803565b61015b61017e366004611270565b61082e565b61013a7f4c77aad017fee21f85779e09d66a6d10774ddd4461d36b082ec2a080fafd91d481565b6101f76101b836600461129c565b600160208190526000918252604090912080549101546001600160a01b0391821691811690600160a01b810462ffffff1690600160b81b900460ff1684565b604080516001600160a01b03958616815294909316602085015262ffffff909116918301919091521515606082015260800161010e565b61023661087f565b60405161010e91906112b7565b610102610251366004611270565b6000918252602082815260408084206001600160a01b0393909316845291905290205460ff1690565b61015b610288366004611304565b6108e1565b61013a600081565b60035461013a565b61015b6102ab366004611270565b610c30565b6102c36102be36600461129c565b610c55565b60405161010e919060006080820190506001600160a01b038084511683528060208501511660208401525062ffffff604084015116604083015260608301511515606083015292915050565b60007fffffffff0000000000000000000000000000000000000000000000000000000082167f7965db0b0000000000000000000000000000000000000000000000000000000014806103a257507f01ffc9a7000000000000000000000000000000000000000000000000000000007fffffffff000000000000000000000000000000000000000000000000000000008316145b92915050565b7f4c77aad017fee21f85779e09d66a6d10774ddd4461d36b082ec2a080fafd91d46103d281610d4e565b845186511480156103e4575083518651145b80156103f1575082518651145b6104425760405162461bcd60e51b815260206004820152601760248201527f4172726179206c656e67746873206d69736d617463682100000000000000000060448201526064015b60405180910390fd5b60005b86518110156107f15784818151811061046057610460611360565b60200260200101516001600160a01b031686828151811061048357610483611360565b60200260200101516001600160a01b0316146107e9576000808683815181106104ae576104ae611360565b60200260200101516001600160a01b03168884815181106104d1576104d1611360565b60200260200101516001600160a01b031610610520578683815181106104f9576104f9611360565b602002602001015188848151811061051357610513611360565b6020026020010151610555565b87838151811061053257610532611360565b602002602001015187848151811061054c5761054c611360565b60200260200101515b90925090506001600160a01b038216158015906105b65750600160008a858151811061058357610583611360565b6020908102919091018101516001600160a01b0316825281019190915260400160002060010154600160b81b900460ff16155b156107e6576040518060800160405280836001600160a01b03168152602001826001600160a01b031681526020018785815181106105f6576105f6611360565b602002602001015162ffffff16815260200160011515815250600160008b868151811061062557610625611360565b6020908102919091018101516001600160a01b0390811683528282019390935260409182016000208451815490851673ffffffffffffffffffffffffffffffffffffffff199091161781559084015160019091018054928501516060909501511515600160b81b027fffffffffffffffff00ffffffffffffffffffffffffffffffffffffffffffffff62ffffff909616600160a01b027fffffffffffffffffff00000000000000000000000000000000000000000000009094169290941691909117919091179290921617905588516002908a908590811061070957610709611360565b602090810291909101810151825460018101845560009384529190922001805473ffffffffffffffffffffffffffffffffffffffff19166001600160a01b03909216919091179055855186908490811061076557610765611360565b602002602001015162ffffff16816001600160a01b0316836001600160a01b03167f8d52a3c12c7f16724f48bc8b00102937a6a2e241168a745958441576419a64998c87815181106107b9576107b9611360565b60200260200101516040516107dd91906001600160a01b0391909116815260200190565b60405180910390a45b50505b600101610445565b506107fb82610d5b565b505050505050565b60008281526020819052604090206001015461081e81610d4e565b6108288383610e52565b50505050565b6001600160a01b0381163314610870576040517f6697b23200000000000000000000000000000000000000000000000000000000815260040160405180910390fd5b61087a8282610efc565b505050565b606060028054806020026020016040519081016040528092919081815260200182805480156108d757602002820191906000526020600020905b81546001600160a01b031681526001909101906020018083116108b9575b5050505050905090565b7f4c77aad017fee21f85779e09d66a6d10774ddd4461d36b082ec2a080fafd91d461090b81610d4e565b836001600160a01b0316856001600160a01b03160361096c5760405162461bcd60e51b815260206004820152601d60248201527f546f6b656e2061646472657373657320617265207468652073616d65210000006044820152606401610439565b600080856001600160a01b0316876001600160a01b03161061098f578587610992565b86865b90925090506001600160a01b038216610a135760405162461bcd60e51b815260206004820152602e60248201527f466972737420746f6b656e20616464726573732069732061207a65726f206f7260448201527f206e756c6c2061646472657373210000000000000000000000000000000000006064820152608401610439565b6001600160a01b03881660009081526001602081905260409091200154600160b81b900460ff1615610a875760405162461bcd60e51b815260206004820152601e60248201527f4c697175696469747920706f6f6c20616c7265616479206578697374732100006044820152606401610439565b6040518060800160405280836001600160a01b03168152602001826001600160a01b031681526020018662ffffff16815260200160011515815250600160008a6001600160a01b03166001600160a01b0316815260200190815260200160002060008201518160000160006101000a8154816001600160a01b0302191690836001600160a01b0316021790555060208201518160010160006101000a8154816001600160a01b0302191690836001600160a01b0316021790555060408201518160010160146101000a81548162ffffff021916908362ffffff16021790555060608201518160010160176101000a81548160ff0219169083151502179055509050506002889080600181540180825580915050600190039060005260206000200160009091909190916101000a8154816001600160a01b0302191690836001600160a01b03160217905550610bdb84610d5b565b6040516001600160a01b03898116825262ffffff871691818416918516907f8d52a3c12c7f16724f48bc8b00102937a6a2e241168a745958441576419a64999060200160405180910390a45050505050505050565b600082815260208190526040902060010154610c4b81610d4e565b6108288383610efc565b6040805160808101825260008082526020820181905291810182905260608101919091526001600160a01b0382166000908152600160208190526040909120810154600160b81b900460ff16151514610cf05760405162461bcd60e51b815260206004820152601e60248201527f4c697175696469747920706f6f6c20646f6573206e6f742065786973742100006044820152606401610439565b506001600160a01b03908116600090815260016020818152604092839020835160808101855281548616815292015493841690820152600160a01b830462ffffff1691810191909152600160b81b90910460ff161515606082015290565b610d588133610f7f565b50565b7f4c77aad017fee21f85779e09d66a6d10774ddd4461d36b082ec2a080fafd91d4610d8581610d4e565b81600003610dd55760405162461bcd60e51b815260206004820181905260248201527f4e657720626c6f636b206e756d6265722063616e6e6f74206265207a65726f216044820152606401610439565b6003548211610e4c5760405162461bcd60e51b815260206004820152603a60248201527f4e657720626c6f636b206e756d626572206d757374206265206269676765722060448201527f7468616e20746865206f6c6420626c6f636b206e756d626572210000000000006064820152608401610439565b50600355565b6000828152602081815260408083206001600160a01b038516845290915281205460ff16610ef4576000838152602081815260408083206001600160a01b03861684529091529020805460ff19166001179055610eac3390565b6001600160a01b0316826001600160a01b0316847f2f8788117e7eff1d82e926ec794901d17c78024a50270940304540a733656f0d60405160405180910390a45060016103a2565b5060006103a2565b6000828152602081815260408083206001600160a01b038516845290915281205460ff1615610ef4576000838152602081815260408083206001600160a01b0386168085529252808320805460ff1916905551339286917ff6391f5c32d9c69d2a47ea670b442974b53935d1edc7fd64eb21e047a839171b9190a45060016103a2565b6000828152602081815260408083206001600160a01b038516845290915290205460ff16610feb576040517fe2517d3f0000000000000000000000000000000000000000000000000000000081526001600160a01b038216600482015260248101839052604401610439565b5050565b60006020828403121561100157600080fd5b81357fffffffff000000000000000000000000000000000000000000000000000000008116811461103157600080fd5b9392505050565b60006020828403121561104a57600080fd5b5035919050565b634e487b7160e01b600052604160045260246000fd5b604051601f8201601f1916810167ffffffffffffffff8111828210171561109057611090611051565b604052919050565b600067ffffffffffffffff8211156110b2576110b2611051565b5060051b60200190565b80356001600160a01b03811681146110d357600080fd5b919050565b600082601f8301126110e957600080fd5b813560206110fe6110f983611098565b611067565b8083825260208201915060208460051b87010193508684111561112057600080fd5b602086015b8481101561114357611136816110bc565b8352918301918301611125565b509695505050505050565b803562ffffff811681146110d357600080fd5b600080600080600060a0868803121561117957600080fd5b853567ffffffffffffffff8082111561119157600080fd5b61119d89838a016110d8565b96506020915081880135818111156111b457600080fd5b6111c08a828b016110d8565b9650506040880135818111156111d557600080fd5b6111e18a828b016110d8565b9550506060880135818111156111f657600080fd5b88019050601f8101891361120957600080fd5b80356112176110f982611098565b81815260059190911b8201830190838101908b83111561123657600080fd5b928401925b8284101561125b5761124c8461114e565b8252928401929084019061123b565b989b979a509598608001359695505050505050565b6000806040838503121561128357600080fd5b82359150611293602084016110bc565b90509250929050565b6000602082840312156112ae57600080fd5b611031826110bc565b6020808252825182820181905260009190848201906040850190845b818110156112f85783516001600160a01b0316835292840192918401916001016112d3565b50909695505050505050565b600080600080600060a0868803121561131c57600080fd5b611325866110bc565b9450611333602087016110bc565b9350611341604087016110bc565b925061134f6060870161114e565b949793965091946080013592915050565b634e487b7160e01b600052603260045260246000fdfea264697066735822122039bb89577f2565b93f0893b44bacce643c7181e01bf945a3dab5cd3a45c8d0de64736f6c63430008180033",
    "linkReferences": {},
    "deployedLinkReferences": {}
}